{"abi":[{"type":"constructor","inputs":[{"name":"_usdc","type":"address","internalType":"address"},{"name":"_oracle","type":"address","internalType":"address"}],"stateMutability":"nonpayable"},{"type":"function","name":"MIN_COLLATERAL_RATIO","inputs":[],"outputs":[{"name":"","type":"uint256","internalType":"uint256"}],"stateMutability":"view"},{"type":"function","name":"depositCollateralAndBorrow","inputs":[{"name":"collateralAmount","type":"uint256","internalType":"uint256"},{"name":"borrowAmount","type":"uint256","internalType":"uint256"}],"outputs":[],"stateMutability":"payable"},{"type":"function","name":"getEthPrice","inputs":[],"outputs":[{"name":"","type":"uint256","internalType":"uint256"}],"stateMutability":"view"},{"type":"function","name":"liquidate","inputs":[{"name":"user","type":"address","internalType":"address"}],"outputs":[],"stateMutability":"nonpayable"},{"type":"function","name":"loans","inputs":[{"name":"","type":"address","internalType":"address"}],"outputs":[{"name":"collateralAmount","type":"uint256","internalType":"uint256"},{"name":"borrowedAmount","type":"uint256","internalType":"uint256"}],"stateMutability":"view"},{"type":"function","name":"oracle","inputs":[],"outputs":[{"name":"","type":"address","internalType":"contract IOracle"}],"stateMutability":"view"},{"type":"function","name":"usdc","inputs":[],"outputs":[{"name":"","type":"address","internalType":"contract IERC20"}],"stateMutability":"view"}],"bytecode":{"object":"0x60c060405234801561000f575f80fd5b5060405162000edb38038062000edb83398181016040528101906100339190610100565b8173ffffffffffffffffffffffffffffffffffffffff1660808173ffffffffffffffffffffffffffffffffffffffff16815250508073ffffffffffffffffffffffffffffffffffffffff1660a08173ffffffffffffffffffffffffffffffffffffffff1681525050505061013e565b5f80fd5b5f73ffffffffffffffffffffffffffffffffffffffff82169050919050565b5f6100cf826100a6565b9050919050565b6100df816100c5565b81146100e9575f80fd5b50565b5f815190506100fa816100d6565b92915050565b5f8060408385031215610116576101156100a2565b5b5f610123858286016100ec565b9250506020610134858286016100ec565b9150509250929050565b60805160a051610d6d6200016e5f395f818161064901526106ff01525f818161032401526106240152610d6d5ff3fe60806040526004361061006f575f3560e01c806367c9b0171161004d57806367c9b017146100e157806373b4086b1461010b5780637a9fffb7146101485780637dc0d1d0146101725761006f565b80631b01d7a8146100735780632f8655681461008f5780633e413bee146100b7575b5f80fd5b61008d60048036038101906100889190610758565b61019c565b005b34801561009a575f80fd5b506100b560048036038101906100b091906107f0565b610404565b005b3480156100c2575f80fd5b506100cb610622565b6040516100d89190610876565b60405180910390f35b3480156100ec575f80fd5b506100f5610646565b604051610102919061089e565b60405180910390f35b348015610116575f80fd5b50610131600480360381019061012c91906107f0565b6106d9565b60405161013f9291906108b7565b60405180910390f35b348015610153575f80fd5b5061015c6106f8565b604051610169919061089e565b60405180910390f35b34801561017d575f80fd5b506101866106fd565b60405161019391906108fe565b60405180910390f35b8134146101de576040517f08c379a00000000000000000000000000000000000000000000000000000000081526004016101d590610971565b60405180910390fd5b5f6101e7610646565b90505f670de0b6b3a764000082856101ff91906109bc565b6102099190610a2a565b90505f811161024d576040517f08c379a000000000000000000000000000000000000000000000000000000000815260040161024490610aa4565b60405180910390fd5b5f60648461025b91906109bc565b90505f8160648461026c91906109bc565b6102769190610a2a565b905060968110156102bc576040517f08c379a00000000000000000000000000000000000000000000000000000000081526004016102b390610b0c565b60405180910390fd5b6040518060400160405280348152602001868152505f803373ffffffffffffffffffffffffffffffffffffffff1673ffffffffffffffffffffffffffffffffffffffff1681526020019081526020015f205f820151815f0155602082015181600101559050507f000000000000000000000000000000000000000000000000000000000000000073ffffffffffffffffffffffffffffffffffffffff1663a9059cbb33876040518363ffffffff1660e01b815260040161037d929190610b39565b6020604051808303815f875af1158015610399573d5f803e3d5ffd5b505050506040513d601f19601f820116820180604052508101906103bd9190610b95565b6103fc576040517f08c379a00000000000000000000000000000000000000000000000000000000081526004016103f390610c0a565b60405180910390fd5b505050505050565b5f805f8373ffffffffffffffffffffffffffffffffffffffff1673ffffffffffffffffffffffffffffffffffffffff1681526020019081526020015f206040518060400160405290815f820154815260200160018201548152505090505f815f0151116104a6576040517f08c379a000000000000000000000000000000000000000000000000000000000815260040161049d90610c72565b60405180910390fd5b5f6104af610646565b90505f670de0b6b3a764000082845f01516104ca91906109bc565b6104d49190610a2a565b90505f606484602001516104e891906109bc565b90505f816064846104f991906109bc565b6105039190610a2a565b905060968110610548576040517f08c379a000000000000000000000000000000000000000000000000000000000815260040161053f90610cda565b60405180910390fd5b5f6064600a875f015161055b91906109bc565b6105659190610a2a565b90505f865f0151905060405180604001604052805f81526020015f8152505f808a73ffffffffffffffffffffffffffffffffffffffff1673ffffffffffffffffffffffffffffffffffffffff1681526020019081526020015f205f820151815f0155602082015181600101559050503373ffffffffffffffffffffffffffffffffffffffff166108fc8390811502906040515f60405180830381858888f19350505050158015610617573d5f803e3d5ffd5b505050505050505050565b7f000000000000000000000000000000000000000000000000000000000000000081565b5f7f000000000000000000000000000000000000000000000000000000000000000073ffffffffffffffffffffffffffffffffffffffff1663ff186b2e6040518163ffffffff1660e01b8152600401602060405180830381865afa1580156106b0573d5f803e3d5ffd5b505050506040513d601f19601f820116820180604052508101906106d49190610d0c565b905090565b5f602052805f5260405f205f91509050805f0154908060010154905082565b609681565b7f000000000000000000000000000000000000000000000000000000000000000081565b5f80fd5b5f819050919050565b61073781610725565b8114610741575f80fd5b50565b5f813590506107528161072e565b92915050565b5f806040838503121561076e5761076d610721565b5b5f61077b85828601610744565b925050602061078c85828601610744565b9150509250929050565b5f73ffffffffffffffffffffffffffffffffffffffff82169050919050565b5f6107bf82610796565b9050919050565b6107cf816107b5565b81146107d9575f80fd5b50565b5f813590506107ea816107c6565b92915050565b5f6020828403121561080557610804610721565b5b5f610812848285016107dc565b91505092915050565b5f819050919050565b5f61083e61083961083484610796565b61081b565b610796565b9050919050565b5f61084f82610824565b9050919050565b5f61086082610845565b9050919050565b61087081610856565b82525050565b5f6020820190506108895f830184610867565b92915050565b61089881610725565b82525050565b5f6020820190506108b15f83018461088f565b92915050565b5f6040820190506108ca5f83018561088f565b6108d7602083018461088f565b9392505050565b5f6108e882610845565b9050919050565b6108f8816108de565b82525050565b5f6020820190506109115f8301846108ef565b92915050565b5f82825260208201905092915050565b7f455448206d69736d6174636800000000000000000000000000000000000000005f82015250565b5f61095b600c83610917565b915061096682610927565b602082019050919050565b5f6020820190508181035f8301526109888161094f565b9050919050565b7f4e487b71000000000000000000000000000000000000000000000000000000005f52601160045260245ffd5b5f6109c682610725565b91506109d183610725565b92508282026109df81610725565b915082820484148315176109f6576109f561098f565b5b5092915050565b7f4e487b71000000000000000000000000000000000000000000000000000000005f52601260045260245ffd5b5f610a3482610725565b9150610a3f83610725565b925082610a4f57610a4e6109fd565b5b828204905092915050565b7f436f6c6c61746572616c2076616c7565206973207a65726f00000000000000005f82015250565b5f610a8e601883610917565b9150610a9982610a5a565b602082019050919050565b5f6020820190508181035f830152610abb81610a82565b9050919050565b7f436f6c6c61746572616c20726174696f20746f6f206c6f7700000000000000005f82015250565b5f610af6601883610917565b9150610b0182610ac2565b602082019050919050565b5f6020820190508181035f830152610b2381610aea565b9050919050565b610b33816107b5565b82525050565b5f604082019050610b4c5f830185610b2a565b610b59602083018461088f565b9392505050565b5f8115159050919050565b610b7481610b60565b8114610b7e575f80fd5b50565b5f81519050610b8f81610b6b565b92915050565b5f60208284031215610baa57610ba9610721565b5b5f610bb784828501610b81565b91505092915050565b7f55534443207472616e73666572206661696c65640000000000000000000000005f82015250565b5f610bf4601483610917565b9150610bff82610bc0565b602082019050919050565b5f6020820190508181035f830152610c2181610be8565b9050919050565b7f4e6f206c6f616e000000000000000000000000000000000000000000000000005f82015250565b5f610c5c600783610917565b9150610c6782610c28565b602082019050919050565b5f6020820190508181035f830152610c8981610c50565b9050919050565b7f43616e6e6f74206c6971756964617465000000000000000000000000000000005f82015250565b5f610cc4601083610917565b9150610ccf82610c90565b602082019050919050565b5f6020820190508181035f830152610cf181610cb8565b9050919050565b5f81519050610d068161072e565b92915050565b5f60208284031215610d2157610d20610721565b5b5f610d2e84828501610cf8565b9150509291505056fea26469706673582212209dcce70b2f1e4ba9c9ca76cb4d6a2b6caae5ada3fba400a1bcb5f9117704830764736f6c63430008140033","linkReferences":{}},"methodIdentifiers":{"MIN_COLLATERAL_RATIO()":"7a9fffb7","depositCollateralAndBorrow(uint256,uint256)":"1b01d7a8","getEthPrice()":"67c9b017","liquidate(address)":"2f865568","loans(address)":"73b4086b","oracle()":"7dc0d1d0","usdc()":"3e413bee"},"id":0}