{"abi":[{"type":"function","name":"ethPrice","inputs":[],"outputs":[{"name":"","type":"uint256","internalType":"uint256"}],"stateMutability":"view"},{"type":"function","name":"setPrice","inputs":[{"name":"newPrice","type":"uint256","internalType":"uint256"}],"outputs":[],"stateMutability":"nonpayable"}],"bytecode":{"object":"0x6080604052642e90edd0005f55348015610017575f80fd5b50610126806100255f395ff3fe6080604052348015600e575f80fd5b50600436106030575f3560e01c806391b7f5ed146034578063ff186b2e14604c575b5f80fd5b604a60048036038101906046919060a6565b6066565b005b6052606f565b604051605d919060d9565b60405180910390f35b805f8190555050565b5f5481565b5f80fd5b5f819050919050565b6088816078565b81146091575f80fd5b50565b5f8135905060a0816081565b92915050565b5f6020828403121560b85760b76074565b5b5f60c3848285016094565b91505092915050565b60d3816078565b82525050565b5f60208201905060ea5f83018460cc565b9291505056fea2646970667358221220876833cb8969af5eb6ba40e0ff08a59830333eac20bfa6b3f5f45ef21bbe830864736f6c63430008140033","linkReferences":{}},"methodIdentifiers":{"ethPrice()":"ff186b2e","setPrice(uint256)":"91b7f5ed"},"id":1}